:060000000A128A11122809
:10000800FE00030E83120313AD000408AE000A08B5
:10001800AF007F08B0000A128A1111290A128A114A
:100028001528C401C501C601C701C801C901CA0113
:10003800CB01CC01CD0183010A128A11FC2983125C
:100048000313AA00203084004430FA000408FB009F
:100058000A30FC007A08840083130008FD00FA0ABD
:100068007B0884007D088000FB0AFC0B2E281030DA
:10007800F0002730F1007908F301F3077808F2015E
:10008800F2070A128A11C9220A128A117108831208
:100098000313A901A9077008A801A8071030F000E8
:1000A8002730F1007908F301F3077808F201F20725
:1000B8000A128A1107230A128A117108831203137C
:1000C800A701A7077008A601A607E830F0000330CB
:1000D800F1002708F301F3072608F201F2070A12D4
:1000E8008A1107230A128A11710883120313A501C2
:1000F800A5077008A401A407E830F0000330F10058
:100108002708F301F3072608F201F2070A128A11F9
:10011800C9220A128A11710883120313A701A707BB
:100128007008A601A6076430F0000030F100250829
:10013800F301F3072408F201F2070A128A110723D0
:100148000A128A11710883120313A301A307700806
:10015800A201A2076430F0000030F1002508F30185
:10016800F3072408F201F2070A128A11C9220A12B7
:100178008A11710883120313A501A5077008A40149
:10018800A4070A30F0000030F1002308F301F30758
:100198002208F201F2070A128A1107230A128A11A9
:1001A800710883120313A101A1077008A001A00719
:1001B8000A30F0000030F1002308F301F3072208A9
:1001C800F201F2070A128A11C9220A128A11710869
:1001D80083120313A301A3077008A201A207063024
:1001E8002A02031CFB280530FA007A08AA00AA088C
:1001F800031908002A08FA007A07FE3E203E840008
:1002080083130008303E0A128A110F240A128A1139
:10021800013083120313AA02FB280030B400003017
:10022800B3000030B2000030B100B501B601B7012B
:10023800B801B901BA0110140618202910100F08C6
:10024800AB00AC012B08AC00AB012B08B9002C08A3
:10025800BA000E083907AB003A0803183A0AAC008E
:100268002B08B9002C08BA000A30F0000030F10061
:100278003A08F301F3073908F201F2070A128A1162
:10028800C9220A128A11700883120313AB0071087D
:10029800AC000310AB0DAC0D0310AB0DAC0D03108F
:1002A800AB0DAC0D2B08B1002C08B200B301B401A2
:1002B8000030F3000030F2000030F1003A30F00076
:1002C8003408F7003308F6003208F5003108F40066
:1002D8000A128A116B220A128A11710883120313F7
:1002E800B601B6077008B501B5070030F300003055
:1002F800F2000030F1009430F0003408F7003308C1
:10030800F6003208F5003108F4000A128A116B224F
:100318000A128A11710883120313B801B80770080A
:10032800B701B707013036029030031935020318B8
:10033800D629003038029D30031937020318D62910
:1003480014300A128A115E240A128A1183120313C6
:100358003608F901F9073508F801F80703300A12D9
:100368008A1123200A128A111A300A128A115E246D
:100378000A128A11831203133808F901F90737089A
:10038800F801F80703300A128A1123200A128A1189
:10039800C830F0000030F1000A128A1144240A1211
:1003A8008A11EE2914300A128A115E240A128A115F
:1003B80018300A128A115F230A128A111A300A1297
:1003C8008A115E240A128A1118300A128A115F23D0
:1003D8000A128A110B10831203133008FF002F082A
:1003E8008A002E0884002D0E8300FE0E7E0E090062
:1003F800831203138501860187018801831603137D
:100408008501033086008701880189018316031757
:100418008801890101300A128A11BE230A128A1141
:1004280002300A128A11BE230A128A1106300A12F1
:100438008A11BE230A128A110C300A128A11BE23AD
:100448000A128A1138300A128A11BE230A128A1136
:1004580020308312031390008B170B178B150B108A
:100468008316031316140A128A1174240A128A11A5
:1004780000300A128A112A240A128A110F300A122D
:100488008A113B230A128A1114300A128A112A246B
:100498000A128A1101300A128A113B230A128A11A0
:1004A800831203138F018E010618542A0510033096
:1004B800C300C30B5D2A8312031305141030C30055
:1004C800C30B642A0000831203130510542A00305A
:1004D800FC000030FB000030FA000030F90073081F
:1004E8007204710470040319C02AFD01FD0AF31B8C
:1004F8008B2A0130F8000310F00DF10DF20DF30D09
:10050800F80B7F2A0130F8007808FD077B2A0130B4
:10051800F8000310F90DFA0DFB0DFC0DF80B8D2AF0
:1005280073087702031DA22A72087602031DA22A05
:1005380071087502031DA22A70087402031CB32AED
:100548007008F4027108031C710FF5027208031C8D
:10055800720FF6027308031C730FF7027914013047
:100568000310F30CF20CF10CF00CFF3E031DB42A3F
:100578000130FD02031D8B2A7C08F3007B08F20082
:100588007A08F1007908F0000800F501F601710811
:1005980070040319002BF701F70AF11BDF2A013059
:1005A8000310F00DF10DFF3E031DD42A0130F400B5
:1005B8007408F707D12A01300310F50DF60DFF3E38
:1005C800031DE02A71087302031DEC2A70087202E9
:1005D800031CF52A7008F2027108031CF303F302E6
:1005E800751401300310F10CF00CFF3E031DF62AC0
:1005F8000130F702031DDF2A7608F101F1077508BB
:10060800F001F0070800710870040319342BF50194
:10061800F50AF11B1B2B01300310F00DF10DFF3E05
:10062800031D102B0130F4007408F5070D2B710819
:100638007302031D212B70087202031C292B7008FA
:10064800F2027108031CF303F30201300310F10CEA
:10065800F00CFF3E031D2A2B0130F502031D1B2B56
:100668007308F101F1077208F001F007080083121E
:100678000313C200C101420803190800420884009C
:100688000A128A1182230A128A11003803190800F3
:10069800420884000A128A1182230A128A110A1255
:1006A8008A11A3230A128A11013083120313C0008E
:1006B8004008C2073F2BF700F60177080319080026
:1006C800770884000A128A1182230A128A110038D4
:1006D80003197F2B770884000A128A1182230A12D1
:1006E8008A110A128A110F240A128A110130F500A0
:1006F8007508F707612B83120313080003308A007B
:100708000408840A82070034203420342034433417
:100718004D34203420342034203449346E3463344A
:1007280068340034443469347334743461346E3456
:100738006334653400342A342A342A34003483126A
:100748000313BF0006163F08880086160A30BB0050
:100758000030BC000A128A11D9230A128A118312A6
:10076800031386120A30BB000030BC000A128A113B
:10077800D923080083120313BF0006123F0888001C
:1007880086163230BB000030BC000A128A11D92309
:100798000A128A118312031386123230BB0000300A
:1007A800BC000A128A11D9230800013083120313EE
:1007B800BB020030031CBC03BC02FF303C06031D17
:1007C800E72BFF303B060319080007308312031399
:1007D800BE007D30BD00BD0BEF2BBE0BEF2BD92B20
:1007E800F400831203130612740888008616323048
:1007F800F0000030F1000A128A1144240A128A110A
:100808008312031386123230F0000030F1000A120E
:100818008A1144240800F40083120313061674088E
:10082800880086160A30F0000030F1000A128A119A
:1008380044240A128A118312031386120A30F00024
:100848000030F1000A128A114424080083120313AD
:10085800C100103041020318372C4108803E0A12AB
:100868008A11BE230800831203134108EC3EC0001E
:100878004008C1004108C03E0A128A11BE23080080
:100888000130F0020030031CF103F102FF30710661
:10089800031D502CFF30700603195B2C0730F30042
:1008A8007D30F200F20B562CF30B562C442C83129D
:1008B80003130800F600103076020318692C760836
:1008C800803E0A128A11F42308007608EC3EF500EF
:1008D8007508F6007608C03E0A128A11F42308004B
:1008E80001300A128A11BE230A128A115830831263
:1008F8000313BB000230BC000A128A11D923080076
:02400E00F2E0DE
:00000001FF